S01C000050726F6A65746F456C646572537072696E7431302E7372656358
S11300000C9424010C9441010C9441010C94410181
S11300100C9441010C94A0010C9441010C944101F5
S11300200C9441010C9441010C9441010C94410144
S11300300C9441010C9441010C9443010C94410132
S11300400C9441010C9441010C9441010C94410124
S11300500C9441010C9441010C9441010C94410114
S11300600C9441010C944101000000000000005F69
S113007000000007000700147F147F14242A7F2A3D
S11300801223130864623649552250000503000008
S1130090001C2241000041221C0014083E081408E0
S11300A0083E0808005030000008080808080060EE
S11300B060000020100804023E5149453E00427F82
S11300C0400042615149462141454B311814127F89
S11300D01027454545393C4A494930017109050312
S11300E03649494936064949291E0036360000007A
S11300F0563600000814224100141414141400414C
S11301002214080201510906324979413E7E111137
S1130110117E7F494949363E414141227F41412276
S11301201C7F494949417F090909013E4149497AEE
S11301307F0808087F00417F41002040413F017F44
S1130140081422417F404040407F020C027F7F041C
S113015008107F3E4141413E7F090909063E415155
S1130160215E7F09192946464949493101017F0128
S1130170013F4040403F1F2040201F3F4038403F48
S11301806314081463070870080761514945430064
S11301907F41410002040810200041417F00040215
S11301A00102044040404040000102040020545435
S11301B054787F48444438384444442038444448BC
S11301C07F3854545418087E0901020C5252523E8E
S11301D07F0804047800447D40002040443D007FB3
S11301E01028440000417F40007C041804787C08F7
S11301F004047838444444387C141414080814144F
S1130200187C7C080404084854545420043F444097
S1130210203C4040207C1C2040201C3C4030403C82
S113022044281028440C5050503C4464544C44001E
S11302300836410000007F00000041360800100825
S1130240081008000000000011241FBECFEFD8E002
S1130250DEBFCDBF11E0A0E0B1E0E2EFFAE102C001
S113026005900D92A035B107D9F723E0A0E5B1E0E0
S113027001C01D92A336B207E1F70E94E7060C9471
S1130280770D0C9400001F920F920FB60F92112459
S1130290CF92DF92EF92FF922F933F934F935F930E
S11302A06F937F938F939F93AF93BF93EF93FF933A
S11302B0C0906501D0906601E0906701F0906801FC
S11302C08FEFC81AD80AE80AF80AC0926501D092DA
S11302D06601E0926701F0926801C701B60122E36A
S11302E030E040E050E00E945C0A672B682B692BE9
S11302F019F081E080936001C701B6012CE231E07E
S113030040E050E00E945C0A672B682B692B19F0CF
S113031081E080935F01FF91EF91BF91AF919F9135
S11303208F917F916F915F914F913F912F91FF90AA
S1130330EF90DF90CF900F900FBE0F901F90189505
S11303401F920F920FB60F921124CF92DF92EF9269
S1130350FF922F933F934F935F936F937F938F936A
S11303609F93AF93BF93EF93FF93489916C08091E7
S11303705B01882359F09BB182E089278BB981E026
S113038090915C01911180E080935C0181E09091F7
S11303905B01911180E080935B014B9929C0C0906F
S11303A06501D0906601E0906701F090680180914A
S11303B0570190915801A0915901B0915A01A70198
S11303C09601281B390B4A0B5B0B60E67AEE80E042
S11303D090E00E945C0A3093640120936301C09210
S11303E05701D0925801E0925901F0925A018CC001
S11303F04C9933C080916201813071F028F08230D1
S113040099F08330C9F01FC081E09091610191118E
S113041080E08093610117C080910201893098F4D3
S11304208F5F809302010FC080910001893058F4DE
S11304308F5F8093000107C080910101893018F417
S11304408F5F809301012FEF83EC99E0215080406E
S11304509040E1F700C0000057C04D9933C080912F
S11304606201813071F028F0823099F08330C9F054
S11304701FC081E090916101911180E0809361013E
S113048017C080910201823098F08150809302015C
S11304900FC080910001823058F081508093000198
S11304A007C080910101823018F0815080930101CE
S11304B02FEF83EC99E0215080409040E1F700C099
S11304C0000022C04E9920C080916101882399F0D8
S11304D080915601882351F090916201933020F469
S11304E09F5F9093620102C01092620191E08111BA
S11304F090E0909356012FEF83EC99E021508040D7
S11305009040E1F700C00000FF91EF91BF91AF91DF
S11305109F918F917F916F915F914F913F912F9117
S1130520FF90EF90DF90CF900F900FBE0F901F9031
S113053018958F929F92AF92BF92CF92DF92EF92D3
S1130540FF92CF93DF93CDB7DEB762970FB6F894DF
S1130550DEBF0FBECDBF22E1E3E0F1E0DE01119684
S113056001900D922A95E1F720915C01213019F454
S11305708FE085B9C2C0E0915501EE0FFF0B21E079
S113058030E02C0F3D1FE20FF31F208125B9E091CD
S11305905501EE0FFF0B21E030E02C0F3D1FE20F61
S11305A0F31F2081318130FF04C02BB120682BB9A7
S11305B003C02BB12F772BB9E0915501E4307CF5C2
S11305C0C0905101D0905201E0905301F090540139
S11305D04B015C018C189D08AE08BF0820910201F4
S11305E08AEF289F90011124A901330F660B770B22
S11305F084169506A606B70608F47FC081E08E0F20
S1130600809355014C0D5D1D6E1D7F1D409351015E
S11306105093520160935301709354016EC0E530BE
S113062094F5C0905101D0905201E0905301F090A4
S113063054014B015C018C189D08AE08BF089091D1
S1130640010148EE53E0949F9001959F300D1124D1
S1130650A901330F660B770B84169506A606B70619
S113066008F44BC081E08E0F809355014C0D5D1D45
S11306706E1D7F1D409351015093520160935301AD
S1130680709354013AC0E93074F5C0905101D09090
S11306905201E0905301F09054014B015C018C181D
S11306A09D08AE08BF08209100018AEF289F9001A1
S11306B01124A901330F660B770B84169506A60641
S11306C0B706D8F081E08E0F809355014C0D5D1D67
S11306D06E1D7F1D4093510150935201609353014D
S11306E0709354010AC010925501609351017093A4
S11306F05201809353019093540162960FB6F8947B
S1130700DEBF0FBECDBFDF91CF91FF90EF90DF90A2
S1130710CF90BF90AF909F908F900895EF92FF92EB
S11307200F931F93CF93DF93CDB7DEB762970FB6C6
S1130730F894DEBF0FBECDBF7C0180915C01813097
S113074001F50E94AA076AE084E10E94960861E02C
S113075085E191E00E94850864E183E20E949608A5
S113076061E08DE191E00E9485086EE18DE00E94D8
S1130770960861E080E291E00E9485080E949B084F
S1130780E9C280916101882321F08DE480935001B6
S11307901AC081E480935001209163013091640177
S11307A0A9E8B8E80E947E0A969587959295829565
S11307B08F7089279F70892799E0981B9093020175
S11307C08F5F80930001809102011F928F930BE24F
S11307D011E01F930F93CE0101969F938F930E9474
S11307E08D0A809100011F928F931F930F93CE0166
S11307F004969F938F930E948D0A809101011F920A
S11308008F931F930F93CE0107969F938F930E940C
S11308108D0A809164018F93809163018F931F935C
S11308200F93CE010A969F938F930E948D0A809115
S11308305E018F9380915D018F931F930F93CE017F
S11308400F969F938F930E948D0AF70180810FB6B4
S1130850F894DEBF0FBECDBF882309F474C2809123
S11308606201813009F4A2C038F0823009F438C141
S1130870833009F4CFC167C20E94AA0742E36FE242
S113088080E00E94EC0765E080E00E94960861E049
S11308908EE291E00E94850865E08EE10E94960850
S11308A061E0809150010E94FF0765E08AE20E94A6
S11308B0960861E083E391E00E9485086FE080E0A0
S11308C00E94960861E085E391E00E9485086FE04C
S11308D08EE10E94960861E0CE0101960E9485088F
S11308E06FE083E20E94960861E08AE391E00E944F
S11308F0850860E082E30E94960862E0CE010F96CC
S11309000E9485086FE082E30E94960861E08CE310
S113091091E00E94850869E182E30E94960862E002
S1130920CE010A960E94850868E282E30E94960836
S113093061E080E491E00E94850869E180E00E9422
S1130940960861E086E491E00E94850869E18EE101
S11309500E94960861E0CE0104960E94850869E130
S113096083E20E94960861E08AE391E00E94850890
S113097063E280E00E94960861E08BE491E00E94CB
S1130980850863E28EE10E94960861E0CE01079635
S11309900E94850863E283E20E94960861E08AE38C
S11309A091E00E9485080E949B08CDC10E94AA077D
S11309B042E36FE280E00E94EC0765E080E00E9481
S11309C0960861E08EE291E00E94850865E08EE180
S11309D00E94960861E0809150010E94FF076FE039
S11309E080E00E94960861E085E391E00E9485081A
S11309F06FE08EE10E94960861E0CE0101960E94AC
S1130A0085086FE083E20E94960861E08AE391E042
S1130A100E9485086FE08AE20E94960861E083E301
S1130A2091E00E94850860E082E30E94960862E0FB
S1130A30CE010F960E9485086FE082E30E9496081B
S1130A4061E08CE391E00E94850869E182E30E9401
S1130A50960862E0CE010A960E94850868E282E365
S1130A600E94960861E080E491E00E94850869E1B3
S1130A7080E00E94960861E086E491E00E94850887
S1130A8069E18EE10E94960861E0CE0104960E941D
S1130A90850869E183E20E94960861E08AE391E0B7
S1130AA00E94850863E280E00E94960861E08BE47E
S1130AB091E00E94850863E28EE10E94960861E05D
S1130AC0CE0107960E94850863E283E20E9496089D
S1130AD061E08AE391E00E9485080E949B0833C18B
S1130AE00E94AA0742E36FE280E00E94EC0765E0FF
S1130AF080E00E94960861E08EE291E00E94850801
S1130B0065E08EE10E94960861E0809150010E94A8
S1130B10FF076FE080E00E94960861E085E391E0C2
S1130B200E9485086FE08EE10E94960861E0CE0184
S1130B3001960E9485086FE083E20E94960861E0B6
S1130B408AE391E00E94850860E082E30E949608AF
S1130B5062E0CE010F960E9485086FE082E30E9456
S1130B60960861E08CE391E00E94850869E182E3E4
S1130B700E94960862E0CE010A960E94850868E207
S1130B8082E30E94960861E080E491E00E94850877
S1130B9069E180E00E94960861E086E491E00E94A9
S1130BA0850869E18EE10E94960861E0CE01049611
S1130BB00E94850869E183E20E94960861E08AE365
S1130BC091E00E94850869E18AE20E94960861E04A
S1130BD083E391E00E94850863E280E00E94960826
S1130BE061E08BE491E00E94850863E28EE10E945B
S1130BF0960861E0CE0107960E94850863E283E2CD
S1130C000E94960861E08AE391E00E9485080E94B0
S1130C109B0899C00E94AA0742E36FE280E00E9409
S1130C20EC0765E080E00E94960861E08EE291E0C6
S1130C300E94850865E08EE10E94960861E080913B
S1130C4050010E94FF076FE080E00E94960861E077
S1130C5085E391E00E9485086FE08EE10E9496088A
S1130C6061E0CE0101960E9485086FE083E20E9454
S1130C70960861E08AE391E00E94850860E082E3DF
S1130C800E94960862E0CE010F960E9485086FE0EC
S1130C9082E30E94960861E08CE391E00E9485085B
S1130CA069E182E30E94960862E0CE010A960E94FE
S1130CB0850868E282E30E94960861E080E491E09E
S1130CC00E94850869E180E00E94960861E086E45C
S1130CD091E00E94850869E18EE10E94960861E036
S1130CE0CE0104960E94850869E183E20E94960879
S1130CF061E08AE391E00E94850863E280E00E945B
S1130D00960861E08BE491E00E94850863E28EE13D
S1130D100E94960861E0CE0107960E94850863E26E
S1130D2083E20E94960861E08AE391E00E948508CC
S1130D3063E28AE20E94960861E083E391E00E9404
S1130D4085080E949B08F701908181E0911180E061
S1130D50F701808362960FB6F894DEBF0FBECDBF55
S1130D60DF91CF911F910F91FF90EF900895CF9352
S1130D70DF93EC018881882331F1609178007091D0
S1130D80790080E090E00E94C2099B01AC0160E818
S1130D9071EC89E799E40E94210920E030E04AE7F8
S1130DA054E40E94B4080E94930970935E01609316
S1130DB05D016C32714020F488B1806488B903C04D
S1130DC088B18F7388B91882DF91CF9108958FEF1E
S1130DD084B982E88AB999E79BB980E487B924E0A9
S1130DE02093680090936D0092E094BD23E025BDAC
S1130DF029EF27BD90936E0080937C0087EE80934B
S1130E007A0010927B0010927E0078940E94520720
S1130E10609165017091660180916701909168010C
S1130E200E94990280E691E00E948E038FE591E092
S1130E300E94B706EDCF98B19D7F98B9662329F03B
S1130E4098B1986098B990E01FC098B1977F98B90D
S1130E50FACF47E050E0491B5109282F30E002C087
S1130E60359527954A95E2F720FF04C028B1206103
S1130E7028B903C028B12F7E28B928B1206228B927
S1130E8028B12F7D28B99F5F983018F388B182600C
S1130E9088B9089560E00E941B07089561E00E94EC
S1130EA01B070895CF93DF9387B1826087B987B119
S1130EB0846087B987B1886087B987B1806187B951
S1130EC087B1806287B988B1846088B988B182604B
S1130ED088B983EC99E00197F1F700C0000088B16C
S1130EE08B7F88B98BE594E40197F1F700C000008B
S1130EF088B1846088B988B18D7F88B981E20E9405
S1130F004A0783E10E944A0786E00E944A0782EC6E
S1130F100E944A0780E20E944A0789E00E944A0729
S1130F2080E80E944A0780E40E944A07C0E0D0E0BB
S1130F3004C080E00E944E072196C83F91E0D90783
S1130F40C0F388E00E944A078CE00E944A07DF91C0
S1130F50CF91089580E80E944A0780E40E944A07DE
S1130F60109261031092620380E090E005C0FC01DE
S1130F70E759FE4F10820196883F21E09207B8F3AB
S1130F800895262F26952695269590E034E5239FEF
S1130F90800D911D1124442379F0677021E030E025
S1130FA002C0220F331F6A95E2F7FC01E759FE4F96
S1130FB08081282B20830895677021E030E002C0EF
S1130FC0220F331F6A95E2F7FC01E759FE4F209583
S1130FD080812823208308951F93CF93DF93C82F04
S1130FE0162FD42F06C041E06C2F812F0E94C10719
S1130FF0CF5FDC17C0F7DF91CF911F910895EF9277
S1131000FF920F931F93CF93DF93E82EF62E00E009
S113101045C02E2D30E020523109802F6F2D0E94C3
S1131020500AF901EE0FFF1FEE0FFF1FE20FF31F2F
S1131030E80FF11DE859FF4FE491812F0E94500AF7
S1131040F0E002C0F595E7958A95E2F7E0FF0AC063
S11310506091620380916103610F41E0800F0E94FF
S1131060C10709C06091620380916103610F40E090
S1131070800F0E94C1071F5F01C010E0212F30E0E4
S1131080CE01880F991F880F991F880F991F8C1BF9
S11310909D0B281739070CF4BCCF0F5F202F30E0CD
S11310A0CF2DD0E0CE01880F991F880F991F8C0F88
S11310B09D1F281739070CF3E1E6F3E08F2D880F05
S11310C0880F8F0D9081890F8F5F8083843570F036
S11310D010926103E2E6F3E08F2D880F880F880FEA
S11310E0982F9F198081890F8F5F8083809162037D
S11310F0803320F01092610310926203DF91CF914C
S11311001F910F91FF90EF9008951F93CF93DF935A
S1131110EC01162F04C02196612F0E94FF078881DD
S11311208111F9CFDF91CF911F91089580936103CD
S1131130609362030895CF93DF9380E80E944A0787
S113114080E40E944A07C0E0D0E007C0FE01E759EE
S1131150FE4F80810E944E072196C83F81E0D80748
S1131160A8F3DF91CF9108955058BB27AA270E9476
S1131170CC080C94160A0E94080A38F00E940F0A40
S113118020F039F49F3F19F426F40C94050A0EF468
S1131190E095E7FB0C94FF09E92F0E94270A58F316
S11311A0BA17620773078407950720F079F4A6F548
S11311B00C94490A0EF4E0950B2EBA2FA02D0B01C6
S11311C0B90190010C01CA01A0011124FF27591B88
S11311D099F0593F50F4503E68F11A16F040A22F8E
S11311E0232F342F4427585FF3CF469537952795FF
S11311F0A795F0405395C9F77EF41F16BA0B620BFE
S1131200730B840BBAF09150A1F0FF0FBB1F661F44
S1131210771F881FC2F70EC0BA0F621F731F841F87
S113122048F4879577956795B795F7959E3F08F0AD
S1131230B0CF9395880F08F09927EE0F979587956F
S113124008950E9435090C94160A0E940F0A58F05A
S11312500E94080A40F029F45F3F29F00C94FF092A
S113126051110C944A0A0C94050A0E94270A68F347
S11312709923B1F3552391F3951B550BBB27AA274B
S113128062177307840738F09F5F5F4F220F331F85
S1131290441FAA1FA9F335D00E2E3AF0E0E832D04D
S11312A091505040E695001CCAF72BD0FE2F29D050
S11312B0660F771F881FBB1F261737074807AB0722
S11312C0B0E809F0BB0B802DBF01FF2793585F4F97
S11312D03AF09E3F510578F00C94FF090C944A0AA9
S11312E05F3FE4F3983ED4F3869577956795B79579
S11312F0F7959F5FC9F7880F911D9695879597F984
S11313000895E1E0660F771F881FBB1F62177307FC
S11313108407BA0720F0621B730B840BBA0BEE1F11
S113132088F7E09508950E942F0A88F09F5798F057
S1131330B92F9927B751B0F0E1F0660F771F881FD6
S1131340991F1AF0BA95C9F714C0B13091F00E94F0
S1131350490AB1E008950C94490A672F782F882729
S1131360B85F39F0B93FCCF3869577956795B39517
S1131370D9F73EF490958095709561957F4F8F4F86
S11313809F4F0895E89409C097FB3EF4909580958B
S1131390709561957F4F8F4F9F4F9923A9F0F92F37
S11313A096E9BB279395F695879577956795B795B5
S11313B0F111F8CFFAF4BB0F11F460FF1BC06F5F9B
S11313C07F4F8F4F9F4F16C0882311F096E911C0AD
S11313D0772321F09EE8872F762F05C0662371F0CE
S11313E096E8862F70E060E02AF09A95660F771FE2
S11313F0881FDAF7880F9695879597F9089597F9D6
S11314009F6780E870E060E008959FEF80EC0895A6
S113141000240A94161617061806090608950024CF
S11314200A9412161306140605060895092E039449
S1131430000C11F4882352F0BB0F40F4BF2B11F4BD
S113144060FF04C06F5F7F4F8F4F9F4F089557FD1C
S11314509058440F551F59F05F3F71F04795880F1E
S113146097FB991F61F09F3F79F0879508951216B5
S113147013061406551FF2CF4695F1DF08C0161661
S113148017061806991FF1CF869571056105089412
S11314900895E894BB2766277727CB0197F9089529
S11314A0991B79E004C0991F961708F0961B881FB2
S11314B07A95C9F780950895A1E21A2EAA1BBB1B41
S11314C0FD010DC0AA1FBB1FEE1FFF1FA217B3070C
S11314D0E407F50720F0A21BB30BE40BF50B661F22
S11314E0771F881F991F1A9469F7609570958095E6
S11314F090959B01AC01BD01CF010895A29FB0015D
S1131500B39FC001A39F700D811D1124911DB29F33
S1131510700D811D1124911D0895AEE0B0E0E3E942
S1131520FAE00C944E0D0D891E8986E08C831A8393
S113153009838FEF9FE79E838D83AE01475E5F4FE4
S11315406F89788DCE0101960E94AF0AEF81F885EC
S1131550E00FF11F10822E96E4E00C946A0DABE0CC
S1131560B0E0E5EBFAE00C94400D6C017B018A01DC
S1131570FC0117821682838181FFCCC1CE010196C2
S11315803C01F6019381F70193FD859193FF8191CD
S11315907F01882309F4BAC1853239F493FD85911A
S11315A093FF81917F01853229F4B60190E00E9476
S11315B0A60CE7CF912C212C312CFFE1F315D8F0A8
S11315C08B3279F038F4803279F08332A1F4232D10
S11315D020611DC08D3261F0803369F4232D2160B8
S11315E016C0832D8260382EE32DE4603E2E2AC07F
S11315F0F32DF8601DC037FC2DC020ED280F2A30D4
S113160040F08E32B9F436FC81C1232D2064322E91
S113161019C036FE06C08AE0989E200D1124922E31
S113162011C0EAE02E9E200D1124222EF32DF0622B
S11316303F2E08C08C3621F4832D8068382E02C0DA
S1131640883641F4F70193FD859193FF81917F01E1
S11316508111B3CF982F9F7D9554933028F40C5F5C
S11316601F4F9FE399830DC0833631F0833771F0A8
S1131670833509F059C021C0F801808189830E5F48
S11316801F4F88248394912C530113C02801F2E046
S11316904F0E511CF801A080B18036FE03C0692DA5
S11316A070E002C06FEF7FEFC5010E949B0C4C01FC
S11316B08201F32DFF773F2E16C0280122E0420E4F
S11316C0511CF801A080B18036FE03C0692D70E082
S11316D002C06FEF7FEFC5010E94900C4C01F32D07
S11316E0F0683F2E820133FC1BC0822D90E08816E7
S11316F09906B0F4B60180E290E00E94A60C2A9408
S1131700F4CFF50137FC859137FE81915F01B60175
S113171090E00E94A60C21102A9421E0821A9108DC
S11317208114910471F7E8C0843611F0893641F5CB
S1131730F80137FE07C060817181828193810C5F5B
S11317401F4F08C060817181072E000C880B990B14
S11317500E5F1F4FF32DFF763F2E97FF09C0909524
S11317608095709561957F4F8F4F9F4FF0683F2E06
S11317702AE030E0A3010E94E20C882E861845C0BE
S1131780853731F4232D2F7EB22E2AE030E025C098
S1131790932D997FB92E8F36C1F018F4883579F0DE
S11317A0B5C0803719F0883721F0B0C0E92FE06167
S11317B0BE2EB4FE0DC0FB2DF460BF2E09C034FE56
S11317C00AC0292F2660B22E06C028E030E005C0EA
S11317D020E130E002C020E132E0F801B7FE07C0AA
S11317E060817181828193810C5F1F4F06C060818B
S11317F0718180E090E00E5F1F4FA3010E94E20C14
S1131800882E8618FB2DFF773F2E36FE0DC0232D24
S11318102E7FA22E891458F434FE0BC032FC09C06A
S1131820832D8E7EA82E05C0B82CA32C03C0B82C03
S113183001C0B92CA4FE0FC0FE01E80DF11D80818A
S1131840803321F49A2D997EA92E09C0A2FE06C0E8
S1131850B394B39404C08A2D867809F0B394A3FC9E
S113186011C0A0FE06C0B21488F4280C922C9B1858
S11318700EC0B21460F4B60180E290E00E94A60C9F
S1131880B394F7CFB21418F42B1802C0982C212C5F
S1131890A4FE10C0B60180E390E00E94A60CA2FE54
S11318A017C0A1FC03C088E790E002C088E590E07F
S11318B0B6010CC08A2D867859F0A1FE02C08BE2D5
S11318C001C080E2A7FC8DE2B60190E00E94A60C64
S11318D0891438F4B60180E390E00E94A60C9A942F
S11318E0F7CF8A94F301E80DF11D8081B60190E0F1
S11318F00E94A60C8110F5CF222009F442CEB60135
S113190080E290E00E94A60C2A94F6CFF60186812C
S1131910978102C08FEF9FEF2B96E2E10C945C0D50
S1131920FC010590615070400110D8F780959095A6
S11319308E0F9F1F0895FC016150704001900110AB
S1131940D8F7809590958E0F9F1F08950F931F933E
S1131950CF93DF93FB01238121FD03C08FEF9FEF22
S11319602CC022FF16C0468157812481358142173D
S1131970530744F4A081B1819D012F5F3F4F318310
S113198020838C93268137812F5F3F4F37832683B3
S113199014C08B01EC01FB010084F185E02D099555
S11319A0892BE1F6D80116968D919C911797019693
S11319B017969C938E931697CE01DF91CF911F912A
S11319C00F910895FA01AA27283051F1203181F1AD
S11319D0E8946F936E7F6E5F7F4F8F4F9F4FAF4F33
S11319E0B1E03ED0B4E03CD0670F781F891F9A1F46
S11319F0A11D680F791F8A1F911DA11D6A0F711DFA
S1131A00811D911DA11D20D009F468943F912AE005
S1131A10269F11243019305D3193DEF6CF010895ED
S1131A20462F4770405D4193B3E00FD0C9F7F6CF1E
S1131A30462F4F70405D4A3318F0495D31FD4052E6
S1131A40419302D0A9F7EACFB4E0A695979587957C
S1131A5077956795BA95C9F700976105710508955B
S1131A609B01AC010A2E0694579547953795279507
S1131A70BA95C9F7620F731F841F951FA01D08959F
S1131A802F923F924F925F926F927F928F929F928A
S1131A90AF92BF92CF92DF92EF92FF920F931F9378
S1131AA0CF93DF93CDB7DEB7CA1BDB0B0FB6F89429
S1131AB0DEBF0FBECDBF09942A88398848885F8469
S1131AC06E847D848C849B84AA84B984C884DF80DA
S1131AD0EE80FD800C811B81AA81B981CE0FD11DBE
S1131AE00FB6F894DEBF0FBECDBFED010895F89494
S1051AF0FFCF22
S1131AF20402060F000700030001000001F0007059
S1131B02003000100056454943554C4F00444500EF
S1131B12454D455247454E434941002575004D6F99
S1131B22646F003C00542E56640073006C75780098
S1131B32632F6D696E00542E566D00542E416D0054
S9030000FC
